:100000000C942A000C943C000C943C000C943C0092
:100010000C943C000C943C000C943C000C943C0070
:100020000C943C000C9457000C943C000C943C0045
:100030000C943C000C943C000C943C000C943C0050
:100040000C943C000C943C000C943C000C943C0040
:100050000C943C0011241FBECFE5D8E0DEBFCDBF1D
:1000600010E0A0E6B0E001C01D92A436B107E1F7B0
:100070000E94BB000C94C7000C9400008AB38FEF61
:100080008ABB08958BB3682B6BBB08958BB3682331
:100090006BBB08952BB381E090E0AC0102C0440F2C
:1000A000551F6A95E2F7BA0162276BBB08951F924C
:1000B0000F920FB60F9211242F933F934F935F939C
:1000C0006F937F938F939F93AF93BF93EF93FF9320
:1000D00080E090E00E94460081E090E00E944600AF
:1000E00082E090E00E94460083E090E00E9446009B
:1000F00084E090E00E94460085E090E00E94460087
:100100006091600070916100809162009091630045
:100110000E944A008091600090916100A09162006D
:10012000B09163000196A11DB11D80936000909372
:100130006100A0936200B093630086309105A10531
:10014000B10540F0109260001092610010926200C0
:1001500010926300FF91EF91BF91AF919F918F91AA
:100160007F916F915F914F913F912F910F900FBEB3
:100170000F901F9018958FEF8ABB1BBA85E089BF3F
:100180001DBC1CBC8EB582608EBD7894FFCFF894E8
:02019000FFCF9F
:00000001FF
