:100000000C942A000C9447000C9447000C94470071
:100010000C9447000C9447000C9447000C94470044
:100020000C9447000C9447000C9447000C94470034
:100030000C9447000C9447000C9447000C94470024
:100040000C9447000C9447000C9447000C94470014
:100050000C94470011241FBECFE5D8E0DEBFCDBF12
:1000600010E0A0E6B0E0E8EEF4E002C005900D92EA
:10007000A63BB107D9F710E0A6EBB0E001C01D9296
:10008000AC3BB107E1F70E94A2010C9472020C9400
:100090000000D598089523B330E020723070822F8D
:1000A000932F0895D09A0895D89A0895D8980895CE
:1000B00087B3807F87BB969A93980000C49A00000C
:1000C00086B38295807F0000C4980000C49A000027
:1000D00096B30000C4980000882384F3969887B3F1
:1000E0008F6087BB0895282F22952F708F7066230D
:1000F00011F4939801C0939A0000C49A98B3907F2A
:10010000922B98BB0000C4980000C49A98B3907FCB
:10011000892B88BB0000C49800000E9458000895F5
:100120000F931F93CF93DF93082F80EF90E00197F9
:10013000F1F788B3807F88BBC4989698939887B36B
:100140008F6087BBBC9A8B9A8E9A0000C49AC19A22
:100150000000C498000000C0000088E260E00E9437
:100160007300802F886060E00E947300802F8C6095
:1001700060E00E94730080E460E00E947300C0E6CB
:10018000D0E000EA10E0899161E00E947300C0179E
:10019000D107C9F781E060E00E947300DF91CF9141
:1001A0001F910F910895CF93DF93EC0188818823ED
:1001B000D9F0853291F4219688818053883020F4DB
:1001C00061E00E9473000CC085E261E00E94730050
:1001D000888161E00E94730003C061E00E947300A7
:1001E00021968881882329F7DF91CF9108951F9365
:1001F000CF93DF93EC01FC0184918823F1F08532E9
:10020000A1F42196FE011491812F8053883020F4AF
:1002100061E00E9473000CC085E261E00E947300FF
:10022000812F61E00E94730003C061E00E947300AF
:100230002196FE018491882311F7DF91CF911F91C0
:100240000895EF92FF920F931F93DF93CF9300D007
:1002500000D00F92CDB7DEB78C01E62EFE013196AD
:1002600085E0DF011D928A95E9F7112344F48DE2C0
:1002700061E00E947300109501951F4F04C080E259
:1002800061E00E9473000115110571F0FE013696C0
:100290002AE030E0C801B9010E94DE018293062FF6
:1002A000172F01151105B1F7BE2DBF3FB1F489819C
:1002B000882349F000E010E07E010894E11CF11C65
:1002C000E00EF11E15C0FE01329600E010E00F5F57
:1002D0001F4F81918823D9F307C0FF24E7FCF094D6
:1002E00005E010E00E191F09053011052CF30CC0B4
:1002F000F70181917F01805D61E00E9473000F5FD3
:100300001F4F05301105A4F30F900F900F900F9021
:100310000F90CF91DF911F910F91FF90EF90089573
:10032000843178F4623031F0633031F0613029F497
:10033000806403C08C5E01C08C5A806860E00E94BB
:10034000730008950E9449000E94520080EF90E0DF
:100350000197F1F70E944B00009719F00E9454009A
:10036000F5CF0E945600F2CF1F93182F873069F403
:100370002091BA003091BB0080EA90E061E070E02B
:1003800047E050E00E94050208C08A3019F48DE071
:100390000E94B4015D9BFECF1CB980E090E01F91EC
:1003A000089582E08BB98FEF89B988E18AB988EA2C
:1003B00090E09093B9008093B800089597FB092EC0
:1003C00007260AD077FD04D00CD006D000201AF4FE
:1003D000709561957F4F0895F6F7909581959F4FA1
:1003E0000895AA1BBB1B51E107C0AA1FBB1FA6177C
:1003F000B70710F0A61BB70B881F991F5A95A9F7CE
:1004000080959095BC01CD010895A0E0B0E0EBE0AF
:10041000F2E00C9441024B015A016901D901139693
:100420002C91139721FF1FC0C0E0D0E014C0D6016B
:100430001896ED91FC911997D8018D918D01B60117
:100440000995009791F40894E11CF11CC801E81487
:10045000F90468F32196CA15DB0538F4082F192F23
:10046000EE24FF24F3CFC0E0D0E0CE01CDB7DEB75D
:10047000ECE00C945D022F923F924F925F926F924C
:100480007F928F929F92AF92BF92CF92DF92EF9224
:10049000FF920F931F93CF93DF93CDB7DEB7CA1BA5
:1004A000DB0B0FB6F894DEBF0FBECDBF09942A88D0
:1004B000398848885F846E847D848C849B84AA8478
:1004C000B984C884DF80EE80FD800C811B81AA8105
:1004D000B981CE0FD11D0FB6F894DEBF0FBECDBFD0
:0804E000ED010895F894FFCF2F
:1004E8000000040E0400000000040E1F0E040000AB
:1004F800040404041F0E04000A15110A0400000075
:100508000A1F1F0E040000000C12120C000000004D
:10051800040E1F0404040400010214080000000073
:100528002A72696E672A0A000000000200000000B3
:06053800B4010000000008
:00000001FF
